{
  "contractName": "Game",
  "abi": [
    {
      "constant": true,
      "inputs": [],
      "name": "player2Tokens",
      "outputs": [
        {
          "name": "",
          "type": "uint256"
        }
      ],
      "payable": false,
      "stateMutability": "view",
      "type": "function"
    },
    {
      "constant": true,
      "inputs": [],
      "name": "player1Tokens",
      "outputs": [
        {
          "name": "",
          "type": "uint256"
        }
      ],
      "payable": false,
      "stateMutability": "view",
      "type": "function"
    },
    {
      "constant": true,
      "inputs": [],
      "name": "player2",
      "outputs": [
        {
          "name": "",
          "type": "address"
        }
      ],
      "payable": false,
      "stateMutability": "view",
      "type": "function"
    },
    {
      "constant": true,
      "inputs": [],
      "name": "player1",
      "outputs": [
        {
          "name": "",
          "type": "address"
        }
      ],
      "payable": false,
      "stateMutability": "view",
      "type": "function"
    },
    {
      "inputs": [],
      "payable": true,
      "stateMutability": "payable",
      "type": "constructor"
    },
    {
      "constant": false,
      "inputs": [],
      "name": "setupPlayer2",
      "outputs": [],
      "payable": true,
      "stateMutability": "payable",
      "type": "function"
    },
    {
      "constant": true,
      "inputs": [],
      "name": "getPlayer1TokensCount",
      "outputs": [
        {
          "name": "",
          "type": "uint256"
        }
      ],
      "payable": false,
      "stateMutability": "view",
      "type": "function"
    },
    {
      "constant": true,
      "inputs": [],
      "name": "getPlayer2TokensCount",
      "outputs": [
        {
          "name": "",
          "type": "uint256"
        }
      ],
      "payable": false,
      "stateMutability": "view",
      "type": "function"
    }
  ],
  "bytecode": "0x60806040526000341161007a576040517f08c379a000000000000000000000000000000000000000000000000000000000815260040180806020018281038252601e8152602001807f56616c75652063616e6e6f74206265206c657373207468616e207a65726f000081525060200191505060405180910390fd5b6000662386f26fc10000348161008c57fe5b06146100e3576040517f08c379a000000000000000000000000000000000000000000000000000000000815260040180806020018281038252602f815260200180610515602f913960400191505060405180910390fd5b336000806101000a81548173ffffffffffffffffffffffffffffffffffffffff021916908373ffffffffffffffffffffffffffffffffffffffff160217905550600a348161012d57fe5b066002819055506103d2806101436000396000f3fe6080604052600436106100705760003560e01c806339f11b6a1161004e57806339f11b6a146100f657806359a5f12d1461012157806367bf595414610178578063d30895e41461018257610070565b80632c005491146100755780633101fc15146100a0578063396a963c146100cb575b600080fd5b34801561008157600080fd5b5061008a6101d9565b6040518082815260200191505060405180910390f35b3480156100ac57600080fd5b506100b56101df565b6040518082815260200191505060405180910390f35b3480156100d757600080fd5b506100e06101e9565b6040518082815260200191505060405180910390f35b34801561010257600080fd5b5061010b6101ef565b6040518082815260200191505060405180910390f35b34801561012d57600080fd5b506101366101f9565b604051808273ffffffffffffffffffffffffffffffffffffffff1673ffffffffffffffffffffffffffffffffffffffff16815260200191505060405180910390f35b61018061021f565b005b34801561018e57600080fd5b50610197610352565b604051808273ffffffffffffffffffffffffffffffffffffffff1673ffffffffffffffffffffffffffffffffffffffff16815260200191505060405180910390f35b60035481565b6000600354905090565b60025481565b6000600254905090565b600160009054906101000a900473ffffffffffffffffffffffffffffffffffffffff1681565b60003411610295576040517f08c379a000000000000000000000000000000000000000000000000000000000815260040180806020018281038252601e8152602001807f56616c75652063616e6e6f74206265206c657373207468616e207a65726f000081525060200191505060405180910390fd5b6000662386f26fc1000034816102a757fe5b06146102fe576040517f08c379a000000000000000000000000000000000000000000000000000000000815260040180806020018281038252602f815260200180610378602f913960400191505060405180910390fd5b33600160006101000a81548173ffffffffffffffffffffffffffffffffffffffff021916908373ffffffffffffffffffffffffffffffffffffffff160217905550600a348161034957fe5b06600381905550565b6000809054906101000a900473ffffffffffffffffffffffffffffffffffffffff168156fe506c65617365207472616e7366657220616d6f756e74206173206d756c7469706c65206f662031302066696e6e6579a165627a7a7230582060bcd2417c0de4f73ee8e2dd8b671f2ac4193560f32cce3bb88eda2325bebe250029506c65617365207472616e7366657220616d6f756e74206173206d756c7469706c65206f662031302066696e6e6579",
  "source": "pragma solidity >=0.4.21 <0.6.0;\n\ncontract Game {\n    address public player1;\n    address public player2;\n    uint256 public player1Tokens;\n    uint256 public player2Tokens;\n    constructor() public payable {\n        require(msg.value > 0,\"Value cannot be less than zero\");\n        require(msg.value % 10 finney == 0,\"Please transfer amount as multiple of 10 finney\");\n        player1 = msg.sender;\n        player1Tokens = msg.value % 10;\n    }\n    function setupPlayer2() public payable {\n        require(msg.value > 0,\"Value cannot be less than zero\");\n        require(msg.value % 10 finney == 0,\"Please transfer amount as multiple of 10 finney\");\n        player2 = msg.sender;\n        player2Tokens = msg.value % 10;\n    }\n    function getPlayer1TokensCount() public view returns(uint256){\n        return player1Tokens;\n    }\n    function getPlayer2TokensCount() public view returns(uint256){\n        return player2Tokens;\n    }\n}",
  "sourcePath": "/home/tapl-tiger/Documents/Tempo/Game/contracts/Game.sol",
  "compiler": {
    "name": "solc",
    "version": "0.5.8+commit.23d335f2.Emscripten.clang"
  },
  "schemaVersion": "3.0.11",
  "updatedAt": "2019-10-16T12:41:28.234Z",
  "devdoc": {
    "methods": {}
  },
  "userdoc": {
    "methods": {}
  }
}